12       HSWC                                                                                                   000000322866630092021                       NACH00000000022444BATCHID100001     YESB0000626062681400000382                    000000013                                                           
23         11                  SHRI RAM TRADING CO                                     HSWC                             0000000263609                       HFDC000359750200004973168                     YESB0000626NACH00000000022444DA09086509-000000000998789     10                                          
23         11                  SHRI RAM TRADING CO                                     HSWC                             0000000311537                       HFDC000359750200004973168                     YESB0000626NACH00000000022444DA09086509-000000000256541     10                                          
23         11                  SHRI RAM TRADING CO                                     HSWC                             0000000235288                       HFDC000359750200004973168                     YESB0000626NACH00000000022444DA09086509-000000000627634     10                                          
23         11                  SHRI RAM TRADING CO                                     HSWC                             0000000261431                       HFDC000359750200004973168                     YESB0000626NACH00000000022444DA09086509-000000000735924     10                                          
23         11                  SHRI RAM TRADING CO                                     HSWC                             0000000191716                       HFDC000359750200004973168                     YESB0000626NACH00000000022444DA09086509-000000000888467     10                                          
23         11                  SHRI RAM TRADING CO                                     HSWC                             0000000211323                       HFDC000359750200004973168                     YESB0000626NACH00000000022444DA09086509-000000000524825     10                                          
23         11                  SHRI RAM TRADING CO                                     HSWC                             0000000424824                       HFDC000359750200004973168                     YESB0000626NACH00000000022444DA09086509-000000000524826     10                                          
23         11                  SHRI RAM TRADING CO                                     HSWC                             0000000215680                       HFDC000359750200004973168                     YESB0000626NACH00000000022444DA09086509-000000000888464     10                                          
23         11                  SHRI RAM TRADING CO                                     HSWC                             0000000084965                       HFDC000359750200004973168                     YESB0000626NACH00000000022444DA09086509-000000000627626     10                                          
23         11                  SHRI RAM TRADING CO                                     HSWC                             0000000224395                       HFDC000359750200004973168                     YESB0000626NACH00000000022444DA09086509-000000000256546     10                                          
23         11                  SHRI RAM TRADING CO                                     HSWC                             0000000063179                       HFDC000359750200004973168                     YESB0000626NACH00000000022444DA09086509-000000000888468     10                                          
23         11                  SHRI RAM TRADING CO                                     HSWC                             0000000435717                       HFDC000359750200004973168                     YESB0000626NACH00000000022444DA09086509-000000000525307     10                                          
23         11                  SHRI RAM TRADING CO                                     HSWC                             0000000305002                       HFDC000359750200004973168                     YESB0000626NACH00000000022444DA09086509-000000000960248     10                                          
