12       FOOD AND SUPPLY                                                                                        000016999080030032021                       NACH00000000012345BATCHID100001     Not provide002301100880                       000000010                                                           
23         11                  AMRIK SINGH                                             FOOD AND SUPPLY                  0000016826160                       PUNB02371002371000106468301                   Not provideNACH00000000012345MSPFSH1211-000000000000188     10                                          
23         11                  AMRIK SINGH                                             FOOD AND SUPPLY                  0000016826160                       PUNB02371002371000106468301                   Not provideNACH00000000012345MSPFSH1211-000000000000189     10                                          
23         11                  AMIR CHAND                                              FOOD AND SUPPLY                  0000014547753                       PSIB000002400241000015106                     Not provideNACH00000000012345MSPFSH1211-000000000000467     10                                          
23         11                  AMRIK SINGH                                             FOOD AND SUPPLY                  0000015283762                       PUNB02371002371000106468301                   Not provideNACH00000000012345MSPFSH1211-000000000000469     10                                          
23         11                  PARWINDER SINGH                                         FOOD AND SUPPLY                  0000018553656                       PSIB000072507251600000428                     Not provideNACH00000000012345MSPFSH1211-000000000000611     10                                          
23         11                  PARWINDER SINGH                                         FOOD AND SUPPLY                  0000018553656                       PSIB000072507251600000428                     Not provideNACH00000000012345MSPFSH1211-000000000000612     10                                          
23         11                  PARWINDER SINGH                                         FOOD AND SUPPLY                  0000018553656                       PSIB000072507251600000428                     Not provideNACH00000000012345MSPFSH1211-000000000000614     10                                          
23         11                  PARWINDER SINGH                                         FOOD AND SUPPLY                  0000018553656                       PSIB000072507251600000428                     Not provideNACH00000000012345MSPFSH1211-000000000000619     10                                          
23         11                  PARWINDER SINGH                                         FOOD AND SUPPLY                  0000012369104                       PSIB000072507251600000428                     Not provideNACH00000000012345MSPFSH1211-000000000000624     10                                          
23         11                  SIMREN SINGH VIRK                                       FOOD AND SUPPLY                  0000018553656                       PUNB00422000422000101553852                   Not provideNACH00000000012345MSPFSH1211-000000000000629     10                                          


